{
  "contractName": "Certification",
  "abi": [
    {
      "inputs": [],
      "stateMutability": "nonpayable",
      "type": "constructor"
    },
    {
      "inputs": [
        {
          "internalType": "bytes32",
          "name": "hash",
          "type": "bytes32"
        },
        {
          "internalType": "string",
          "name": "insti",
          "type": "string"
        },
        {
          "internalType": "string",
          "name": "reci",
          "type": "string"
        },
        {
          "internalType": "string",
          "name": "course",
          "type": "string"
        },
        {
          "internalType": "string",
          "name": "grade",
          "type": "string"
        },
        {
          "internalType": "string",
          "name": "doc",
          "type": "string"
        }
      ],
      "name": "addDocHash",
      "outputs": [],
      "stateMutability": "nonpayable",
      "type": "function"
    },
    {
      "inputs": [
        {
          "internalType": "bytes32",
          "name": "hash",
          "type": "bytes32"
        }
      ],
      "name": "findDocHash",
      "outputs": [
        {
          "internalType": "uint256",
          "name": "",
          "type": "uint256"
        },
        {
          "internalType": "string",
          "name": "",
          "type": "string"
        },
        {
          "internalType": "string",
          "name": "",
          "type": "string"
        },
        {
          "internalType": "string",
          "name": "",
          "type": "string"
        },
        {
          "internalType": "string",
          "name": "",
          "type": "string"
        },
        {
          "internalType": "string",
          "name": "",
          "type": "string"
        }
      ],
      "stateMutability": "view",
      "type": "function",
      "constant": true
    }
  ],
  "bytecode": "0x608060405234801561001057600080fd5b50610bc4806100206000396000f3fe608060405234801561001057600080fd5b50600436106100365760003560e01c806342ec2bab1461003b5780634cf00d3f14610057575b600080fd5b6100556004803603810190610050919061064e565b61008c565b005b610071600480360381019061006c9190610767565b610164565b6040516100839695949392919061082c565b60405180910390f35b60006040518060e0016040528042815260200143815260200187815260200186815260200185815260200184815260200183815250905080600080898152602001908152602001600020600082015181600001556020820151816001015560408201518160020190816100ff9190610abc565b5060608201518160030190816101159190610abc565b50608082015181600401908161012b9190610abc565b5060a08201518160050190816101419190610abc565b5060c08201518160060190816101579190610abc565b5090505050505050505050565b60006060806060806060600080888152602001908152602001600020600101546000808981526020019081526020016000206002016000808a81526020019081526020016000206003016000808b81526020019081526020016000206004016000808c81526020019081526020016000206005016000808d81526020019081526020016000206006018480546101f9906108df565b80601f0160208091040260200160405190810160405280929190818152602001828054610225906108df565b80156102725780601f1061024757610100808354040283529160200191610272565b820191906000526020600020905b81548152906001019060200180831161025557829003601f168201915b50505050509450838054610285906108df565b80601f01602080910402602001604051908101604052809291908181526020018280546102b1906108df565b80156102fe5780601f106102d3576101008083540402835291602001916102fe565b820191906000526020600020905b8154815290600101906020018083116102e157829003601f168201915b50505050509350828054610311906108df565b80601f016020809104026020016040519081016040528092919081815260200182805461033d906108df565b801561038a5780601f1061035f5761010080835404028352916020019161038a565b820191906000526020600020905b81548152906001019060200180831161036d57829003601f168201915b5050505050925081805461039d906108df565b80601f01602080910402602001604051908101604052809291908181526020018280546103c9906108df565b80156104165780601f106103eb57610100808354040283529160200191610416565b820191906000526020600020905b8154815290600101906020018083116103f957829003601f168201915b50505050509150808054610429906108df565b80601f0160208091040260200160405190810160405280929190818152602001828054610455906108df565b80156104a25780601f10610477576101008083540402835291602001916104a2565b820191906000526020600020905b81548152906001019060200180831161048557829003601f168201915b5050505050905095509550955095509550955091939550919395565b6000604051905090565b600080fd5b600080fd5b6000819050919050565b6104e5816104d2565b81146104f057600080fd5b50565b600081359050610502816104dc565b92915050565b600080fd5b600080fd5b6000601f19601f8301169050919050565b7f4e487b7100000000000000000000000000000000000000000000000000000000600052604160045260246000fd5b61055b82610512565b810181811067ffffffffffffffff8211171561057a57610579610523565b5b80604052505050565b600061058d6104be565b90506105998282610552565b919050565b600067ffffffffffffffff8211156105b9576105b8610523565b5b6105c282610512565b9050602081019050919050565b82818337600083830152505050565b60006105f16105ec8461059e565b610583565b90508281526020810184848401111561060d5761060c61050d565b5b6106188482856105cf565b509392505050565b600082601f83011261063557610634610508565b5b81356106458482602086016105de565b91505092915050565b60008060008060008060c0878903121561066b5761066a6104c8565b5b600061067989828a016104f3565b965050602087013567ffffffffffffffff81111561069a576106996104cd565b5b6106a689828a01610620565b955050604087013567ffffffffffffffff8111156106c7576106c66104cd565b5b6106d389828a01610620565b945050606087013567ffffffffffffffff8111156106f4576106f36104cd565b5b61070089828a01610620565b935050608087013567ffffffffffffffff811115610721576107206104cd565b5b61072d89828a01610620565b92505060a087013567ffffffffffffffff81111561074e5761074d6104cd565b5b61075a89828a01610620565b9150509295509295509295565b60006020828403121561077d5761077c6104c8565b5b600061078b848285016104f3565b91505092915050565b6000819050919050565b6107a781610794565b82525050565b600081519050919050565b600082825260208201905092915050565b60005b838110156107e75780820151818401526020810190506107cc565b60008484015250505050565b60006107fe826107ad565b61080881856107b8565b93506108188185602086016107c9565b61082181610512565b840191505092915050565b600060c082019050610841600083018961079e565b818103602083015261085381886107f3565b9050818103604083015261086781876107f3565b9050818103606083015261087b81866107f3565b9050818103608083015261088f81856107f3565b905081810360a08301526108a381846107f3565b9050979650505050505050565b7f4e487b7100000000000000000000000000000000000000000000000000000000600052602260045260246000fd5b600060028204905060018216806108f757607f821691505b60208210810361090a576109096108b0565b5b50919050565b60008190508160005260206000209050919050565b60006020601f8301049050919050565b600082821b905092915050565b6000600883026109727fffffffffffffffffffffffffffffffffffffffffffffffffffffffffffffffff82610935565b61097c8683610935565b95508019841693508086168417925050509392505050565b6000819050919050565b60006109b96109b46109af84610794565b610994565b610794565b9050919050565b6000819050919050565b6109d38361099e565b6109e76109df826109c0565b848454610942565b825550505050565b600090565b6109fc6109ef565b610a078184846109ca565b505050565b5b81811015610a2b57610a206000826109f4565b600181019050610a0d565b5050565b601f821115610a7057610a4181610910565b610a4a84610925565b81016020851015610a59578190505b610a6d610a6585610925565b830182610a0c565b50505b505050565b600082821c905092915050565b6000610a9360001984600802610a75565b1980831691505092915050565b6000610aac8383610a82565b9150826002028217905092915050565b610ac5826107ad565b67ffffffffffffffff811115610ade57610add610523565b5b610ae882546108df565b610af3828285610a2f565b600060209050601f831160018114610b265760008415610b14578287015190505b610b1e8582610aa0565b865550610b86565b601f198416610b3486610910565b60005b82811015610b5c57848901518255600182019150602085019450602081019050610b37565b86831015610b795784890151610b75601f891682610a82565b8355505b6001600288020188555050505b50505050505056fea26469706673582212201793e36e22b667785320cde7e350d3b60c6a0bc7723d8616b444933113cacfa764736f6c63430008110033",
  "immutableReferences": {},
  "source": "// SPDX-License-Identifier: MIT\r\npragma solidity ^0.8.17;\r\n\r\ncontract Certification {\r\n\t\r\n\tstruct Record {\r\n    \tuint mineTime;\r\n    \tuint blockNumber;\r\n    \tstring instituteName;\r\n    \tstring recipientName;\r\n    \tstring courseName;\r\n    \tstring marks;\r\n    \tstring dateOfCompletion;\r\n  \t}\r\n  \t\r\n  \tmapping (bytes32 => Record) private docHashes;\r\n  \t\r\n  \tconstructor(){\r\n  \t\r\n  \t}\r\n  \t\r\n  \t// function that is used to store records on the blockchain\r\n  \tfunction addDocHash(bytes32 hash, string memory insti, string memory reci, string memory course, string memory grade, string memory doc ) public {\r\n    \tRecord memory newRecord = Record(block.timestamp, block.number, insti, reci, course, grade,doc);\r\n    \tdocHashes[hash] = newRecord;\r\n  \t}\r\n  \t\r\n  \t// verify weather a hash exists on the blockchain and retrieve the corresponding record\r\n  \tfunction findDocHash(bytes32 hash) public view returns(uint, string memory, string memory, string memory, string memory, string memory) {\r\n    \treturn (docHashes[hash].blockNumber, docHashes[hash].instituteName, docHashes[hash].recipientName, \r\n    \t\t\tdocHashes[hash].courseName, docHashes[hash].marks, docHashes[hash].dateOfCompletion);\r\n  \t}\r\n}\r\n",
  "sourcePath": "C:\\Users\\yacin\\Desktop\\THYP_22-23_SmartContrat\\contracts\\Certification.sol",
  "compiler": {
    "name": "solc",
    "version": "0.8.17+commit.8df45f5f.Emscripten.clang"
  },
  "schemaVersion": "3.4.10",
  "updatedAt": "2022-11-04T14:48:18.057Z",
  "networkType": "ethereum",
  "devdoc": {
    "kind": "dev",
    "methods": {},
    "version": 1
  },
  "userdoc": {
    "kind": "user",
    "methods": {},
    "version": 1
  }
}